:03000000020030CB
:03000B0002006090
:10003000758150C2D3C2D4D295E4F51A79087810EC
:0F004000F608D9FCF51875198075150A75120A9E
:0F004F00758901758CEC758A78D28CD2AFD2A9E5
:10005E0080FEC0E0C0D0758CEC758A78D2D3C2D445
:10006E00E519F5A0E51903F519E51854072410F95B
:0F007E00E79000D4540F93F5800518051AE51A82
:10008D00B4C83F751A000517E517B40A3575170082
:0E009D000516E516B4062B7516000514E514BD
:1000AB00B40A217514000513E513B4061775130074
:0E00BB000511E511B40A0D7511000510E510D0
:1000C900B40203751000D0D0D0E03248EB5262E19F
:0600D9006444EA4060F7F8
:00000001FF
