:03000000020030CB
:03000B0002005A96
:10003000758150C2D3C2D4D295E4F51A79087810EC
:0F004000F608D9FCF518751980758901758CF7CC
:0F004F00758A00D28CD2AFD2A980FEC0E0C0D09B
:10005E00758CF7758A00D2D3C2D4E519F5A0E519CF
:10006E0003F519E51854072410F9E79000E2540F30
:0F007E0093F5800518051AE51AB4C853751A00D2
:0E008D000517E517B40A497517000516E516A4
:10009B00B40A3F7516000515E515B40A357515003C
:0E00AB000514E514B40A2B7514000513E513B3
:1000B900B40A217513000512E512B40A1775120066
:0E00C9000511E511B40A0D7511000510E510C2
:1000D700B40A03751000D0D0D0E03248EB5262E189
:0500E7006444EA4060E2
:00000001FF
